:040000004DEF00F0D0
:10000800FACF26F0FBCF27F0E9CF28F0EACF29F086
:10001800E1CF2AF0E2CF2BF0D9CF2CF0DACF2DF0B8
:10002800F3CF2EF0F4CF2FF0F6CF30F0F7CF31F03A
:10003800F8CF32F0F5CF33F0F2BC9DA805D09EA8DA
:1000480003D075EC02F008D0F2BC9DAA05D09EAA98
:1000580003D08EEC02F000D033C0F5FF32C0F8FFB9
:1000680031C0F7FF30C0F6FF2FC0F4FF2EC0F3FFFA
:100078002DC0DAFF2CC0D9FF2BC0E2FF2AC0E1FF58
:1000880029C0EAFF28C0E9FF27C0FBFF26C0FAFF06
:100098001100A6EF02F0366ECDD03A501EEC02F0F9
:1000A8001200000E386E000E376E38BE08D0385079
:1000B80005E1100E375CD8B0120001D01200010E15
:1000C8003724D96E000E3820DA6EDF501EEC02F0AD
:1000D800410E356EEE0EE82EFED7352EFCD700D039
:1000E800374A382A38BEEBD7385001E1E2D7120038
:1000F8008C9012008C801200899000D0899200D0D8
:10010800899400D0899600D0899800D0899A00D027
:100118008D9000D08D9200D08D9400D0899C00D015
:100128008B9000D08B9200D08B9400D08C9000D014
:100138008C9200D08A9C00D08A9E00D08A9600D0EB
:100148008A9400D08A9200D08A9000D08C9E1200A7
:100158008990120089801200899212008982120007
:100168008A9C12008A8C12008994120089841200D9
:1001780089961200898612008998120089881200CF
:10018800899A1200898A12008D9012008D801200BF
:100198008D9212008D8212008D9412008D841200AF
:1001A800899C1200898C12008B9012008B8012009F
:1001B8008B9212008B8212008B9412008B84120097
:1001C8008C9012008C8012008A9E12008A8E120077
:1001D800899000D0899200D0899400D0899600D067
:1001E800899800D0899A00D08D9000D08D9200D047
:1001F8008D9400D0899C00D08B9000D08B9200D039
:100208008B9400D08C9000D08C9200D08A9C00D027
:100218008A9E12008A8612008A8412008A8212003C
:100228008A8E12008A8012008C8E1200550E1EECE7
:1002380002F012003650020AD8B48AD7060AD8B497
:100248008BD7010AD8B48CD7030AD8B48DD70E0A35
:10025800D8B48ED7020AD8B48FD7060AD8B490D7A4
:10026800020AD8B491D71E0AD8B492D7020AD8B4D1
:1002780093D7060AD8B494D7020AD8B495D70E0AE9
:10028800D8B496D7020AD8B497D7060AD8B498D75C
:10029800020AD8B499D73C0AD8B45CD7010AD8B4B2
:1002A800BFD7070AD8B45AD7010AD8B45BD7030A0C
:1002B800D8B45CD70E0AD8B45DD7020AD8B45ED7D2
:1002C800010AD8B4A7D7070AD8B45CD7010AD8B4AA
:1002D800A3D7030AD8B45AD7010AD8B49FD71F0A9C
:1002E800D8B458D7010AD8B49DD7030AD8B456D77A
:1002F800010AD8B499D7070AD8B454D7020AD8B48F
:1003080055D70E0AD8B456D7020AD8B457D7060A12
:10031800D8B458D7020AD8B459D7770AD8B4C1D6AE
:100328001D0AD8B4BAD60C0AD8B4E6D6390AD8B455
:10033800DFD6030AD8B4DED61A0AD8B449D776D796
:100348001200B1EC02F0F28EF28C350E3A6E330EDA
:10035800016E2E0E026E390E036E340E046E330ECD
:10036800056E370E066E2E0E076E390E086E310EAC
:10037800096E350E0A6E2E0E0B6E340E0C6E350E8F
:100388000D6E2E0E0E6E380E0F6E370E106E00D0DC
:10039800899000D0899200D0899400D0899600D0A5
:1003A800899800D0899A00D08D9000D08D9200D085
:1003B8008D9400D0899C00D08B9000D08B9200D077
:1003C8008B9400D08C9000D08C9207D03EEC02F039
:1003D800396E39504FEC00F000D02150D8B4FDD719
:1003E800F5D7FBD74DEF00F0000E8D6E000E8C6E2A
:1003F800000E896E000E8A6E000E8B6E000E966ED1
:10040800000E926E300E936EB80E946E7C0E956E42
:10041800380E0F013A6F3F0E0F01396F000E0F01B2
:100428003B6F000E0F013C6F000E0F01386F6168C3
:10043800F19E1200346E00D03B50D8B4FDD79DB861
:1004480003D034C0ADFF14D09D982450010D190E6F
:10045800F324D96E000EF420DA6E34C0DFFF242AAC
:10046800070E246403D0000E246E00D03B0600D093
:100478009D881200000E346E00D02150D8B4FDD7EC
:100488002350010D110EF324D96E000EF420DA6EFC
:10049800DF50346E232A070E236403D0000E236E28
:1004A80000D09D9A21069D8A3450120012009D9A10
:1004B8009D98080EB86E900EAB6E240EAC6ECF0EE3
:1004C800AF6E000EB06E000E246E000E256E080E84
:1004D8003B6E000E226E000E236E000E216E9D8A6A
:1004E8001200080E3B6013D02550010D190EF3249D
:1004F800D96E000EF420DA6EDF50AD6E252A070E95
:10050800256403D0000E256E00D03B2A12009D986A
:1005180012001200ABA203D0AB98AB8800D02250D7
:10052800010D110EF324D96E000EF420DA6EAECF51
:10053800DFFF222A070E226403D0000E226E00D0AD
:10054800212A120000EE01F0250EEE6AE806FDE110
:10055800000EF86E0001A5EF01F0C1EC02F0F8EC16
:1005680001F0BAEC02F05BEC02F01200600ED36E00
:0E057800040ED26E000E9B6E1200D09E12007A
:020000040020DA
:08000000FFFFFFFFFFFFFFFF00
:020000040030CA
:0E000000FF281F3CFFBF85FF0FC00FE00F4021
:00000001FF
